:02000000F028E6
:1000060083160313981809280000032883122D0865
:040016009900080045
:10001A00A53083120313FD00FD0B11280000000018
:02002A000800CC
:0E002C008312031326088A00250882000800AC
:10003A008316031398169030831298008316871735
:10004A00071383128C1E2C281A08F0002628080091
:10005A007E3083120313AD000320FF30AD0003206E
:10006A000630AD0003202408AD000320AD010320B3
:10007A002108AD0003202008AD0003202308AD00AD
:10008A0003202208AD000320EF30AD000320A001B9
:10009A00A1018230FC00DD30FD00FD0B5228FC0B73
:0800AA005228000000000800CC
:1000B20083120313A201A3012408053EF0000130BC
:1000C2000318013EF1002108F0070318F10A200885
:1000D200F0070318F10A7008A2007108A300700863
:1000E200003CA2007108031C013EA301A302080008
:1000F20083120313AC012808F1000130F0007108EB
:1001020003198728F00D7010FF3E81287008AB009C
:100112002708840070080005F10071080130031DF2
:100122000030F0002A08F0060319AF282908003C25
:1001320003189F280D200D20A90397282708840063
:100142002B080005F10071080130031D0030F0009A
:100152002A08F0060319AF28FF30AC002C08F00083
:02016200080093
:0E016400163083120313A40059202D2008002A
:10017200033083120313A4002708A0002808A1005B
:0601820059202D200800A9
:10018800193083120313A4002708A0002808A1002F
:0601980059202D20080093
:10019E00193083160313990018151D200630FB0025
:1001AE001330FC00AD30FD00FD0BDB28FC0BDB2813
:0A01BE00FB0BDB2800000000080026
:1001C80016208A110A128000840AA50A0319A60AB1
:0801D800F003031DE4280800F8
:1001E00088218316031381130F3086008312860142
:1001F00083160713CF200630A700A8016430A9009A
:10020000AA017920700803191B29E0300605F000C7
:10021000031D182910308606061E17290130A70075
:100220000030A800B920A701A801C4201829B220D5
:1002300006181B2918290630A7000130A8006430D1
:10024000A900AA017920700803193C29D0300605BD
:10025000F000031D392920308606861E3829023019
:10026000A7000030A800B920A701A801C42039299F
:10027000B22086183C2939290630A7000230A80090
:100280006430A900AA017920700803195D29B030F3
:100290000605F000031D5A2940308606061F59291D
:1002A0000330A7000030A800B920A701A801C4208E
:1002B0005A29B22006195D295A290630A7000330B1
:1002C000A8006430A900AA017920700803197E29CA
:1002D00070300605F000031D7B2980308606861FDE
:1002E0007A290430A7000030A800B920A701A8018E
:1002F000C4207B29B22086197E297B29FB287F29EF
:1003100020308400023083120313F0008530A500E2
:080320000130A600E4200800F2
:04030A000034003487
:02400E00412F40
:00000001FF
