:020000007F2956
:10000800FF00030E8301A9000A08AA008A01013033
:10001800A202031CA3030B112A088A00290E8300DD
:06002800FF0E7F0E09002F
:10002E008316031398181D2800001728831233080F
:04003E00990008001D
:100042007E3083120313B3001720FF30B300172052
:100052000630B30017202608B3001720B30117207B
:100062002108B30017202008B30017202508B30089
:1000720017202408B3001720EF30B3001720A00187
:10008200A1018230FC00DD30FD00FD0B4628FC0B97
:080092004628000000000800F0
:10009A0083120313A401A5012608053EF0000130CE
:1000AA000318013EF1002108F0070318F10A20089D
:1000BA00F0070318F10A7008A4007108A500700877
:1000CA00003CA4007108031C013EA501A50208001A
:1000DA008316031398169030831298008316871795
:1000EA00071383128C1E7C281A08F0007628080051
:1000FA00193083120313A6003108A0003208A100A8
:06010A004D202120080039
:10011000A53083120313FD00FD0B8C2800000000A6
:020120000800D5
:100122008316031381128B1683123108A200320840
:04013200A30008001E
:0E0136008312031328088A002708820008009D
:10014400193083160313990018156D200630FB002F
:100154001330FC00AD30FD00FD0BAE28FC0BAE28C7
:0A016400FB0BAE28000000000800AD
:0A016E008316031381168B1208009C
:0E017800163083120313A6004D20212008002C
:10018600033083120313A6003108A0003208A10031
:060196004D2021200800AD
:10019C001030831203138606061EE2284B30B10082
:1001AC000030B20091200130B1000030B200C32009
:0E01BC00B101B2017D20E428B720BC2008006C
:1001CA0083120313B0012C08F1000130F00071080A
:1001DA000319F328F00D7010FF3EED287008AF00E8
:1001EA002B08840070080005F10071080130031D16
:1001FA000030F0002E08F00603191B292D08003CD8
:10020A0003180B2988208820AD0303292B088400B2
:10021A002F080005F10071080130031D0030F000BD
:10022A002E08F00603191B29FF30B0003008F00031
:02023A000800BA
:10023C00EF3083120313860520308606861E342980
:10024C004B30B1000030B20091200230B1000030D0
:10025C00B200C320B101B2017D203629B720BC20E9
:02026C00080088
:10026E00CF3083120313860540308606061F4D29B4
:10027E004B30B1000030B20091200330B10000309D
:10028E00B200C320B101B2017D204F29B720BC209E
:02029E00080056
:1002A000273083160313810080308B000F308600C7
:0C02B0008312860183160713A2200800A9
:1002BC008F3083120313860580308606861F7129C2
:1002CC00B72004308312B1000030B200C320B1015A
:0A02DC00B2017D207229BC20080049
:1002E6009B208A110A128000840AA70A0319A80A09
:0802F600F003031D7329080049
:1002FE00082250210630AB00AC010530AD00AE0136
:10030E00E520700803199F290530F1000608F0005A
:10031E00710803199629F00CF013FF3E902907304F
:10032E00F0057008031D9C29CE2006189F299C29D4
:10033E000630AB000130AC000530AD00AE01E5205B
:10034E0070080319BE290630F1000608F000710886
:10035E000319B529F00CF013FF3EAF290330F00559
:10036E007008031DBB291E218618BE29BB29063025
:10037E00AB000230AC000530AD00AE01E5207008D8
:10038E000319DA290730F0000608F1007008031986
:10039E00D429F10CF113FF3ECE297118D72937213C
:1003AE000619DA29D7290630AB000330AC00053028
:1003BE00AD00AE01E52070080319E9295E2186190A
:1003CE00E929E62900302306031DEF290030220615
:1003DE00031DFC29061EF5291E21FC29861EF9295E
:0E03EE003721FC29061FFC295E218129FD29EB
:1004100020308400043083120313F0000330A7005F
:080420000230A800732108005E
:04040600003400348A
:04040A000134003485
:02400E00412F40
:00000001FF
