:0200000058287E
:0E0006008312031321088A00200882000800DC
:10001400A53083120313FD00FD0B0E280000000021
:020024000800D2
:1000260083120313A7012308F1000130F0007108C1
:1000360003192128F00D7010FF3E1B287008A6003A
:100046002208840070080005F10071080130031DC4
:100056000030F0002508F006031949282408003C62
:10006600031839280A200A20A4033128220884000C
:1000760026080005F10071080130031D0030F0006C
:100086002508F00603194928FF30A7002708F000C5
:02009600080060
:1000980003208A110A128000840AA00A0319A10AFF
:0800A800F003031D4C280800C1
:1000B0008316031381130F308600831286010630E6
:1000C000A200A3010530A400A501132070080319A4
:1000D0006E281030860606186E286B280630A2009F
:1000E0000130A3000530A400A501132070080319F6
:1000F0007E282030860686187E287B280630A200BF
:100100000230A3000530A400A501132070080319D4
:100110008E284030860606198E288B280630A200CD
:100120000330A3000530A400A501132070080319B3
:100130009E288030860686199E289B285F289F2847
:02400E00412F40
:00000001FF
