:02000000FA28DC
:1000060083160313981809280000032883122D0865
:040016009900080045
:10001A0083120313A201A3012408053EF000013054
:10002A000318013EF1002108F0070318F10A20081D
:10003A00F0070318F10A7008A2007108A3007008FB
:10004A00003CA2007108031C013EA301A3020800A0
:10005A00A53083120313FD00FD0B312800000000B8
:02006A0008008C
:10006C008316031398169030831298008316871703
:10007C00071383128C1E45281A08F0003F2808002D
:10008C007E3083120313AD000320FF30AD0003203C
:10009C000630AD0003202408AD000320AD01032081
:1000AC002108AD0003202008AD0003202308AD007B
:1000BC0003202208AD000320EF30AD000320A00187
:1000CC00A1018230FC00DD30FD00FD0B6B28FC0B28
:0800DC006B2800000000080081
:0E00E4008312031326088A00250882000800F4
:1000F200063083120313A4002708A000A1010D20DB
:04010200462008008B
:10010600033083120313A4002708A0002808A100C7
:060116000D204620080048
:10011C00193083120313A4002708A0002808A1009B
:06012C000D204620080032
:1001320072208A110A128000840AA50A0319A60AEB
:08014200F003031D99280800D9
:10014A0083120313AC012808F1000130F000710892
:10015A000319B328F00D7010FF3EAD287008AB00EC
:10016A002708840070080005F10071080130031D9A
:10017A000030F0002A08F0060319DB282908003CA1
:10018A000318CB282D202D20A903C3282708840073
:10019A002B080005F10071080130031D0030F00042
:1001AA002A08F0060319DB28FF30AC002C08F000FF
:0201BA0008003B
:0E01BC00163083120313A4000D204620080005
:1001CA001930831603139900181536200630FB00E0
:1001DA001330FC00AD30FD00FD0BF128FC0BF128BB
:0A01EA00FB0BF128000000000800E4
:1001F400BC218316031381130F308600F030831261
:10020400860083160713E520DE200A30A700792034
:10021400981307130630A700A8016430A900AA01A7
:10022400A520700803193529E0300605F10071088E
:10023400E03A031D32291930831699001815362027
:1002440010308606061A2F290130A7000030A800B6
:100254008320A701A8018E203029DE2098130713DC
:100264000618352932290630A7000130A800643069
:10027400A900AA01A520700803195F29D03006053A
:10028400F1007108D03A031D5C29193083169900D6
:100294001815362020308606861A59290230A70000
:1002A4000030A8008320A701A8018E205A29DE204F
:1002B4009813071386185F295C290630A7000230BB
:1002C400A8006430A900AA01A5207008031989298F
:1002D400B0300605F1007108B03A031D86291930C3
:1002E400831699001815362040308606061B83298C
:1002F4000330A7000030A8008320A701A8018E20A6
:100304008429DE20981307130619892986290630C3
:10031400A7000330A8006430A900AA01A520700832
:100324000319B32970300605F1007108703A031DF2
:10033400B0291930831699001815362080308606A6
:10034400861BAD290430A7000030A8008320A70134
:10035400A8018E20AE29DE20981307138619B3292D
:06036400B0290A29B429AA
:1003780020308400023083120313F000BA30A50045
:080388000130A60099200800D5
:04037400003400341D
:02400E00012F80
:00000001FF
