:1000000054EF00F00000000000EF00F000000000DE
:0A0010000000000000000000F3D71C
:0E001C00A50E0D6E0D2EFED700000000120086
:10002A000900F5CFE6FF0006FBE10106F9E112003F
:10003A001B6A17C001F0010E006E015004E0003681
:10004A000090FF0FFBD700C01AF015C0E9FF16C0D9
:10005A00EAFF0050EE14016E0152010ED8A4000E00
:10006A00006E1950001A18E01850000804E2D1DF97
:10007A00D0DF1806F9D715C0E9FF16C0EAFF1A50F3
:10008A00EE14016E0152010ED8A4000E006E195032
:0E009A00001A02E0FF0E1B6E1BC000F01200E9
:1000A800F19E0F0E936E816A810E156E0F0E166EFD
:1000B800176A050E186E196ABCDF005204E08178D1
:1000C80081B001D0FDD7810E156E0F0E166E010E90
:1000D800176E050E186E196AACDF005204E0817ABB
:1000E80081B201D0FDD7810E156E0F0E166E020E6D
:1000F800176E050E186E196A9CDF005204E0817CA9
:1001080081B401D0FDD7810E156E0F0E166E030E49
:10011800176E050E186E196A8CDF005204E0817E96
:0A01280081B601D0FDD7C0D7FFD784
:020000040030CA
:0E00000000001E1EFF8181FF0FC00FE00F40A9
:00000001FF
