:020000000C29C9
:10000800FF00030E8301A8000A08A9008A01060858
:10001800A3000B1029088A00280E8300FF0E7F0E0C
:020028000900CD
:10002A008316031398181B2800001528831230081A
:04003A009900080021
:10003E0083120313A601A7012208053EF00001302A
:10004E000318013EF1002108F0070318F10A2008F9
:10005E00F0070318F10A7008A6007108A7007008CF
:10006E00003CA6007108031C013EA701A702080070
:10007E00A53083120313FD00FD0B43280000000082
:02008E00080068
:1000900083160313981690308312980083168717DF
:1000A000071383128C1E57281A08F00051280800E5
:1000B0007E3083120313B0001520FF30B0001520EE
:1000C0000630B00015202208B0001520B001152020
:1000D0002108B00015202008B00015202708B00026
:1000E00015202608B0001520EF30B0001520A00123
:1000F000A1018230FC00DD30FD00FD0B7D28FC0BF2
:080100007D280000000008004A
:0E0108008312031325088A00240882000800D1
:10011600063083120313A2002A08A000A1011F20A3
:040126005820080055
:10012A00033083120313A2002A08A0002B08A1009F
:06013A001F205820080000
:10014000193083120313A2002A08A0002B08A10073
:060150001F2058200800EA
:1001560084208A110A128000840AA40A0319A50AB7
:08016600F003031DAB280800A3
:10016E0083120313AF012B08F1000130F000710868
:10017E000319C528F00D7010FF3EBF287008AE00A1
:10018E002A08840070080005F10071080130031D73
:10019E000030F0002D08F0060319ED282C08003C65
:1001AE000318DD283F203F20AC03D5282A08840001
:1001BE002E080005F10071080130031D0030F0001B
:1001CE002D08F0060319ED28FF30AF002F08F000C0
:0201DE00080017
:0E01E000163083120313A2001F2058200800BF
:1001EE001930831603139900181548200630FB00AA
:1001FE001330FC00AD30FD00FD0B0329FC0B032971
:0A020E00FB0B0329000000000800AC
:10021800BA21831603138113F03086000F3083123E
:10022800860083160713F720F0200A30AA008B20D7
:1002380088308B00630000008B010630AA00043070
:10024800AB006430AC00AD01B72070080319442935
:100258000E300605F10071080E3A031D41290130E0
:100268008606061840290130AA000030AB00952008
:10027800AA01AB01A0204129F020061A44294129EE
:100288000630AA000530AB006430AC00AD01B720E1
:100298007008031967290D300605F10071080D3A39
:1002A800031D642902308606861863290230AA00D5
:1002B8000030AB009520AA01AB01A0206429F020F2
:1002C800861A672964290630AA000630AB00643014
:1002D800AC00AD01B720700803198A290B30060558
:1002E800F10071080B3A031D8729043086060619A8
:1002F80086290330AA000030AB009520AA01AB0183
:10030800A0208729F020061B8A2987290630AA0001
:100318000730AB006430AC00AD01B720700803199A
:10032800AD2907300605F1007108073A031DAA290F
:10033800083086068619A9290430AA000030AB00C7
:100348009520AA01AB01A020AA29F020861BAD297F
:0E035800AA290608A30088308B001E29B229AE
:1003740020308400023083120313F000B830A4004C
:080384000130A500AB200800C8
:040370000034003421
:02400E00012F80
:00000001FF
